:1000000033C04DC04CC04BC04AC049C0DBC247C022
:1000100046C045C044C043C042C041C040C03FC0CC
:100020003EC03DC03CC000003A00370000003B002D
:10003000380000000000000000000003000400057C
:100040000000000039003600010101010101010139
:100050000202020202020202010204081020408091
:10006000010204081020408011241FBECFE5D2E019
:10007000DEBFCDBF10E0A0E6B0E0E0EFFDE002C0E3
:1000800005900D92A237B107D9F720E0A2E7B0E0C2
:1000900001C01D92A039B207E1F7DED2A7C6B0CFEA
:1000A0008F7787B987B187B9369A3699FECF84B1F1
:1000B00095B108958230910538F0880F991F880F07
:1000C000991F05970197F1F708953FB7F89480912C
:1000D000780090917900A0917A00B0917B0022B7CE
:1000E00008B601FE05C02F3F19F00196A11DB11DF4
:1000F0003FBFBA2FA92F982F8827BC01CD01620FCF
:10010000711D811D911D42E0660F771F881F991F89
:100110004A95D1F70895CF92DF92EF92FF92CF9355
:10012000DF936B017C01D1DFEB01CFDF6C1B7D0B1B
:10013000683E7340A0F0C114D104E104F10439F425
:10014000DF91CF91FF90EF90DF90CF90089581E005
:10015000C81AD108E108F108C851DC4FE6CFC11434
:10016000D104E104F10409F7EBCFCF93DF93C09101
:10017000810089E8CC2309F458C092DFEC0186E8BD
:100180008FDFC536D105ECF021E020936100853684
:100190009105E4F082E080936000C091610080915D
:1001A0006000C80F80917200C81741F0833021F4BD
:1001B000C13089F0C23091F1C0937200DF91CF91CC
:1001C0000895E29724F710926100E1CFC2972CF7CF
:1001D00010926000E2CF60917F00709180006F5FAD
:1001E0007F4F7093800060937F0077FF03C071950D
:1001F00061957109072E000C880B990BD9D42091B9
:1002000063003091640040916500509166005CD5B8
:100210009CD470937E0060937D00CECF60917F0070
:100220007091800061507109DCCF3ADF853691050D
:100230000CF0C1E0809162008C1709F4BFCFCC2391
:10024000E9F060917F00709180006F5F7F4F709345
:10025000800060937F00072E000C880B990BA8D4B8
:1002600020916300309164004091650050916600D8
:100270002BD56BD470937E0060937D00C093620099
:100280009DCFCF93DF93E5E8F0E0119220E0EF38C7
:10029000F207D9F720E0CAE0D0E0009751F0E22F52
:1002A000F0E0EB57FF4FBE017AD58083CB012F5F83
:1002B000F4CFDF91CF910895E4DFA5E8B0E0EC91B1
:1002C000F0E0E859FF4F8081809384001196EC9113
:1002D0001197F0E0E859FF4F8081809383001296D8
:1002E000EC91F0E0E859FF4F8081809382000895FF
:1002F000CF93DF93EB01ABD38883CE01DF91CF9116
:10030000089590E0FC01E85AFF4F2491FC01E85B5E
:10031000FF4FE491EE2371F0F0E0EE0FFF1FEE5B74
:10032000FF4FA591B491EC91E22381E090E021F49C
:1003300080E0089580E090E0089590E0FC01EE5C9C
:10034000FF4F3491FC01E85AFF4F2491FC01E85B18
:10035000FF4FE491EE23C1F0332329F03330A9F4A9
:1003600087B58F7787BDF0E0EE0FFF1FE45DFF4F8D
:10037000A591B4918FB7611112C0F8949C91E22FAE
:10038000E095E923EC938FBF0895343019F487B5D5
:100390008F7DE8CF353039F787B5877FE3CFF89485
:1003A000EC91E22BEFCFFF920F931F93CF93DF934C
:1003B000D0E0C0E006E010E06091820070E0C8018B
:1003C0008C1B9D0B02C0759567958A95E2F761704D
:1003D0008C2FB3DF2196C730D10571F761E088E03B
:1003E000ACDFF0908F0081E0F8124AC0BEDE60E022
:1003F00088E0A3DF10E000E0C6E0D0E06091830079
:1004000070E0CE01801B910B02C0759567958A95AF
:10041000E2F76170802F91DF0F5F1F4F07301105EA
:1004200069F761E089E089DF81E0F8122DC09DDE87
:1004300060E089E082DFD0E0C0E006E010E060919B
:10044000840070E0C8018C1B9D0B02C075956795F8
:100450008A95E2F761708C2F70DF2196C730D10545
:1004600071F761E08AE069DF81E0F81211C07DDE9A
:1004700060E08AE0DF91CF911F910F91FF905DCFF7
:1004800084EF91E017DEB3CF84EF91E013DED0CF9D
:1004900084EF91E00FDEECCFCF93DF93DAE0C0E0A2
:1004A00061E08BE04ADF64E170E080E090E033DE01
:1004B00089E8F6DD8536910534F086E8F1DD85368C
:1004C00091050CF0CF5F60E08BE037DF64E170E016
:1004D00080E090E020DE89E8E3DDC2972CF486E836
:1004E000DFDDC2970CF4CF5FD150D1F6CF30D8F416
:1004F0008FE2809382008EE7809383008AE180936D
:100500008400C4EFD1E04FDF2197E9F78DE68093B7
:1005100082008CE08093830080938400C4EFD1E05C
:1005200042DF2197E9F760E08BE0DF91CF9105CFC3
:10053000CF93DF9387FF06C08F77833018F0873023
:1005400040F58F5F90E0FC01E85AFF4F2491885BF3
:100550009F4FFC0184918823C9F090E0880F991F78
:10056000FC01EA5DFF4FA591B491FC01E45DFF4FF2
:10057000C591D491611113C09FB7F8948C912095C7
:1005800082238C938881282328839FBFDF91CF917A
:1005900008958B3010F48B5FD5CF80E0D3CF6230DD
:1005A00051F49FB7F8943C91822F809583238C93CC
:1005B000E8812E2BE9CF8FB7F894EC912E2B2C935A
:1005C0008FBFE4CF1F920F920FB60F9211242F937B
:1005D0003F938F939F93AF93BF93809174009091BB
:1005E0007500A0917600B09177003091730023E000
:1005F000230F2D3768F126E8230F0296A11DB11DA8
:10060000209373008093740090937500A0937600FC
:10061000B09377008091780090917900A0917A0052
:10062000B0917B000196A11DB11D8093780090933D
:100630007900A0937A00B0937B00BF91AF919F9116
:100640008F913F912F910F900FBE0F901F90189593
:100650000196A11DB11DD4CFCF93DF9300D0CDB7AC
:10066000DEB793E093BF789489B7826089BF90BF6B
:1006700081E087BD86BD87E08FBD87E886B910E041
:1006800061E0812F55DF60E0812F57DE1F5F1C3056
:10069000B9F762E08CE04CDF62E08DE049DF60E0BA
:1006A00089E846DF60E086E843DFBE016E5F7F4F8A
:1006B00090E080E01DDEBE016F5F7F4F81E090E043
:1006C00017DE6A818FEF860F8230B0F46093670087
:1006D00070E090E080E06CD29B01AC0160E070E0E3
:1006E00080E890E4CAD160936300709364008093C3
:1006F00065009093660008C0862F877F843031F3B1
:10070000683021F3603111F38981811129C0109281
:10071000810062E370E080E090E0FDDCBDDE62E33A
:1007200070E080E090E0F7DC53E0F52E02E06FE14E
:10073000D62E74E2E72EEBE6CE2EFEE0BF2EA7E02B
:10074000AA2E80918F00813009F448C070F0823069
:1007500009F47AC0833009F49BC010928F00F1CF66
:100760008130B9F680938100D4CF8CE0CADD892B2B
:1007700031F400938F0081E080937C00E2CF60E051
:100780008BE0DBDD10E09924939480918F00811140
:10079000D8CF1F5F08DE8CE0B4DD892B39F464EF1D
:1007A00071E080E090E0B7DC90928F008DE0A9DDF1
:1007B000892B49F464EF71E080E090E0ACDCF092CA
:1007C0008F0010927C001E3730F080917D00909158
:1007D0007E0072DDDACF10928200D7CF8CE091DDFF
:1007E000892B29F400938F0010927C00AACF61E03E
:1007F0008BE0A3DD62E370E080E090E08CDC11E050
:1008000080918F00813009F09CCFCDDD8CE079DDC7
:10081000892B39F464EF71E080E090E07CDC109289
:100820008F008DE06EDD892B49F464EF71E080E08C
:1008300090E071DCF0928F0010937C0080917D003D
:1008400090917E0039DDDCCF80918F00823009F0FD
:1008500078CF44E6842E912CA6DD81E0881A910899
:10086000D9F76CE271E080E090E055DC8CE049DD86
:10087000019751F711DE1092800010927F001092C4
:100880007E0010927D0080917C0080938F00DCCFF1
:1008900010E08CE7982E8824839498E0792E20E14C
:1008A000622E34E0532E80918F00833009F049CFBF
:1008B000113009F469C0123009F49CC08CE021DDCC
:1008C000892B31F568EC70E080E090E024DC8091C9
:1008D0006700843009F44FC0F0F5813009F445C059
:1008E000823009F445C06091670070E090E080E0DC
:1008F0005FD19B01AC0160E070E080E890E4BDD086
:100900006093630070936400809365009093660029
:100910008DE0F7DC10E0892B31F468EC70E080E0CA
:1009200090E0F9DB11E08091670090E0AADCE091B3
:100930008500F0E0E859FF4F808180938400E091CA
:100940008600F0E0E859FF4F808180938300909209
:10095000820029DDA8CF8C3089F0803191F0883079
:1009600011F68CE080936700BECF00936700BBCF89
:1009700050926700B8CF70926700B5CF6092670061
:10098000B2CF80926700AFCF8CE0BBDC892B99F4AB
:1009900068EC70E080E090E0BEDB80918100813007
:1009A000F9F0109381001092800010927F00109255
:1009B0007E0010927D008DE0A4DC892B31F468EC80
:1009C00070E080E090E0A7DB12E08091810081116F
:1009D0000AC0E0928200B0928300A0928400B9CF56
:1009E00010928100E0CFD0928200E0928300C0920A
:1009F0008400AFCFBE016E5F7F4F90E080E078DC77
:100A0000BE016F5F7F4F81E090E072DC4090670035
:100A10008A81841549F090E080E019D0481621F0D1
:100A2000642D90E080E01BD04090810089814816C1
:100A300049F081E090E00BD0481621F0642D81E070
:100A400090E00DD080917C0080938F002CCFE199B5
:100A5000FECF9FBB8EBBE09A99278DB30895262FBA
:100A6000E199FECF1CBA9FBB8EBB2DBB0FB6F8948D
:100A7000E29AE19A0FBE019608950CD0EBC0E3D044
:100A800040F0DAD030F021F45F3F19F0CCC05111C2
:100A900015C1CFC0F0D098F39923C9F35523B1F312
:100AA000951B550BBB27AA2762177307840738F0DD
:100AB0009F5F5F4F220F331F441FAA1FA9F333D03C
:100AC0000E2E3AF0E0E830D091505040E695001CF0
:100AD000CAF729D0FE2F27D0660F771F881FBB1FAC
:100AE000261737074807AB07B0E809F0BB0B802D86
:100AF000BF01FF2793585F4F2AF09E3F510568F0D2
:100B000092C0DCC05F3FECF3983EDCF386957795AE
:100B10006795B795F7959F5FC9F7880F911D9695D3
:100B2000879597F90895E1E0660F771F881FBB1F2F
:100B3000621773078407BA0720F0621B730B840BDC
:100B4000BA0BEE1F88F7E095089504D06894B111B0
:100B5000B5C0089598D088F09F5790F0B92F992785
:100B6000B751A0F0D1F0660F771F881F991F1AF0B8
:100B7000BA95C9F712C0B13081F09FD0B1E00895A5
:100B80009CC0672F782F8827B85F39F0B93FCCF326
:100B9000869577956795B395D9F73EF490958095AE
:100BA000709561957F4F8F4F9F4F0895E89409C0CE
:100BB00097FB3EF490958095709561957F4F8F4F90
:100BC0009F4F9923A9F0F92F96E9BB279395F695A6
:100BD000879577956795B795F111F8CFFAF4BB0F24
:100BE00011F460FF1BC06F5F7F4F8F4F9F4F16C088
:100BF000882311F096E911C0772321F09EE8872F12
:100C0000762F05C0662371F096E8862F70E060E0CD
:100C10002AF09A95660F771F881FDAF7880F969546
:100C2000879597F9089597F99F6780E870E060E0ED
:100C300008959FEF80EC089500240A941616170675
:100C400018060906089500240A94121613061406BD
:100C500005060895092E0394000C11F4882352F020
:100C6000BB0F40F4BF2B11F460FF04C06F5F7F4FD8
:100C70008F4F9F4F089557FD9058440F551F59F0BF
:100C80005F3F71F04795880F97FB991F61F09F3F79
:100C900079F087950895121613061406551FF2CFA2
:100CA0004695F1DF08C0161617061806991FF1CFF2
:100CB00086957105610508940895E894BB27662719
:100CC0007727CB0197F908950AD0C4CFB5DF28F074
:100CD000BADF18F0952309F0A6CFABCFEFCFCBDF6B
:100CE000A8F39923D9F35523C9F3950F50E0551F65
:100CF000AA27EE27FF27BB2700240894679520F436
:100D0000E20FF31FB41F0A1E220F331F441FAA1F36
:100D10006695A9F7779530F4F30FB41F0A1E121EDB
:100D200008F46395330F441FAA1F221F769599F785
:100D3000879520F4B40F0A1E121E631F440FAA1FCA
:100D4000221F331F8695A9F7862F712D602D112440
:100D50009F5750408AF0E1F088234AF0EE0FFF1FC2
:100D6000BB1F661F771F881F91505040A9F79E3FF9
:100D7000510570F058CFA2CF5F3FECF3983EDCF303
:100D8000869577956795B795F795E7959F5FC1F736
:100D9000FE2B880F911D9695879597F9089597FBDF
:100DA000072E16F4009406D077FD08D00BD007FC70
:100DB00005D03EF4909581959F4F0895709561956B
:100DC0007F4F0895AA1BBB1B51E107C0AA1FBB1F81
:100DD000A617B70710F0A61BB70B881F991F5A95C7
:100DE000A9F780959095BC01CD010895F894FFCFA7
:100DF0000201010000803F0477245D5B3A6B6F5273
:020E00007F7AF7
:00000001FF
